:100000000C94A2030C94E9030C94E9030C94E90307
:100010000C94E9030C94E9030C94E9030C94E903B0
:100020000C94E9030C94E9030C9458270C942C28A5
:100030000C94F01F0C94E9030C94E9030C94E9036D
:100040000C94E9030C94E9030C94E9030C94E90380
:100050000C94E9030C9456200C94E9030C94E903E6
:100060000C94E9030C94E9030C94E9030C94E90360
:100070000C94E9030C94E9030C94E9030C94E90350
:100080000C94E9030C94E9030C94E9030C94E90340
:100090000C94E9030C94E9030C94E9030C94E90330
:1000A0000C94E9030C94E9030C94E90303E30309BA
:1000B0000002E302090003E303130002E30213005A
:1000C00003E303140002E302140003E303E1031655
:1000D0000002E302E102160003E303E1031700025A
:1000E000E302E102170003E303110002E30211003F
:1000F00003E303330002E302330003E1033E0002A3
:10010000E1023E0003E303170002E302170003E3EA
:1001100003070002E302070003E303040002E30213
:10012000040003E303E203E103080002E302E20246
:10013000E102080003E3030F0002E3020F0003E300
:1001400003160002E302160003E103E203E30316D1
:100150000002E102E202E302160003E303190002D7
:10016000E302190003E3031A0002E3021A0003E3A7
:1001700003270002E302270003E303060002E30271
:10018000060003E303120002E302120003E3035735
:100190000002E302570003E303560002E3025600A5
:1001A00003E3031D0002E3021D0003E103E3031D5B
:1001B0000002E102E3021D00085D095D0A5D0B5DBE
:1001C0000C5D0D5D0E5D2C000F5D105DE200E10029
:1001D0001350125011501050100019002F00300011
:1001E0001A0012001B0005000D000F000800060099
:1001F00016000900010010502900115D125D135D09
:100200002B00145D155D165D6A000100175D185D19
:1002100069006800195D105029001A5DC95CC25C54
:100220002B001B5DCA5CC35C1C5D01001D5D005C96
:100230001E5D1F5D01001050000000000000000066
:100240002A2B280000000000000000000000000031
:1002500000000029000000002C1E3420212224343C
:100260002627252E362D3738271E1F20212223240E
:1002700025263333362E37381F0405060708090AAA
:100280000B0C0D0E0F101112131415161718191A46
:100290001B1C1D2F3130232D350405060708090AC4
:1002A0000B0C0D0E0F101112131415161718191A26
:1002B0001B1C1D2F3130354C0000000000000000D9
:1002C000000000000000000000000000000000002E
:1002D000000000000000000000000000000000001E
:1002E000000000000000000000000000000000000E
:1002F00000000000000000000000000000000000FE
:1003000000000000000000000000000000000000ED
:1003100000000000000000000000000000000000DD
:1003200000000000000000000000000000000000CD
:1003300000000000000000000000000000000000BD
:1003400000000000000000000000000000000000AD
:100350000000000000000000000101010101010097
:100360000101010100000000000000000000000089
:100370000000010001000101010101010101010171
:10038000010101010101010101010101010101015D
:100390000101010000000101000000000000000058
:1003A000000000000000000000000000000000004D
:1003B0000000000101010100643214783C1E1E148B
:1003C0000A052223252628292A2C2D2F30323335C1
:1003D00036383A3B3D3E4042434547494A4C4E50F1
:1003E00051535557595A5C5E6062646668696B6D1B
:1003F0006F71737577797B7D7F81838587898A8C1F
:100400008E90929496989A9C9E9FA1A3A5A7A8AA25
:10041000ACAEAFB1B3B4B6B8B9BBBCBEBFC1C2C35A
:10042000C5C6C7C9CACBCCCDCED0D1D2D2D3D4D5F4
:10043000D6D7D7D8D9D9DADADBDBDBDCDCDCDCDC1D
:10044000DDDDDDDDDCDCDCDCDCDBDBDBDADAD9D9F5
:10045000D8D7D7D6D5D4D3D2D2D1D0CECDCCCBCA83
:10046000C9C7C6C5C3C2C1BFBEBCBBB9B8B6B4B3A9
:10047000B1AFAEACAAA8A7A5A3A19F9E9C9A98963F
:100480009492908E8C8A89878583817F7D7B797712
:100490007573716F6D6B6968666462605E5C5A59F2
:1004A00057555351504E4C4A4947454342403E3DB3
:1004B0003B3A3836353332302F2D2C2A2928262541
:1004C0002322FFAA7F554000010101010101010122
:1004D00001020202020202020202030303030303F7
:1004E00003030404040404040405050505050606C5
:1004F0000606060707070707080808080909090983
:100500000A0A0A0B0B0B0C0C0C0D0D0D0E0E0E0F28
:100510000F0F1010111111121213131414151516B8
:10052000161717181819191A1A1B1B1C1D1D1E1E29
:100530001F2020212222232424252626272829297A
:100540002A2B2C2D2D2E2F303132323334353637A5
:1005500038393A3B3C3D3E3F4041424344454647A3
:1005600048494A4C4D4E4F50515354555658595A7C
:100570005B5D5E5F616264656668696B6C6D6F7020
:1005800072737577787A7B7D7E8082838587888A8F
:100590008C8E8F91939596989A9C9EA0A2A3A5A7C6
:1005A000A9ABADAFB1B3B5B7BABCBEC0C2C4C6C9C2
:1005B000CBCDCFD1D4D6D8DBDDDFE2E4E7E9EBEE7B
:1005C000F0F3F5F8FAFDFF0403300000000C0362BD
:1005D000006D00310036006100000016034B005032
:1005E00000720065007000750062006C00690063B5
:1005F0000000000403090409023B00020100A0FA04
:100600000904000001030101000921110100012278
:1006100040000705810308000A09040100010300E6
:10062000000009211101000122C0000705820320FA
:10063000000A1201100100000008EDFE4D42010009
:100640000102030105010902A10185020901A100BE
:100650000509190129051500250195057501810276
:100660009501750381010501093009311581257F47
:1006700095027508810609381581257F9501750851
:100680008106050C0A38021581257F9501750881C0
:1006900006C0C005010980A10185031A81002A83D3
:1006A00000160100260300950175108100C0050C9D
:1006B0000901A10185041A01002A9C0216010026E5
:1006C0009C02950175108100C005010906A10185F4
:1006D00005050719E029E715002501950875018131
:1006E000020507190029EF1500250195F075018114
:1006F00002050819012905950575019102950175F5
:10070000039101C005010906A101050719E029E7C8
:100710001500250195087501810295017508810173
:100720000507190029FF150026FF009506750881A9
:1007300000050819012905950575019102950175B6
:10074000039101C011241FBECFEFDAE0DEBFCDBFA1
:1007500004B603FE27C08091530290915402A091E9
:100760005502B09156028730904BA740B04BD1F460
:100770001092530210925402109255021092560297
:1007800014BE84B7877F84BF0FB6F894A895809174
:100790006000886180936000109260000FBEE0E00E
:1007A000F8E3099511E0A0E0B1E0E6E0F6E502C06B
:1007B00005900D92A434B107D9F722E0A4E4B1E08A
:1007C00001C01D92A335B207E1F70E9489240C9461
:1007D000AD2A0C9400000C9423090C9424090C9469
:1007E000F3030C94C80588509D458831910570F439
:1007F000FC01E155F54DDB0112969C910C94382AD1
:10080000992331F081EB91E00E94A30581E00895E6
:100810008AEA91E0F9CF992319F085EA91E0F4CFC3
:1008200080EA91E0F1CF992319F08BE991E0ECCFC8
:1008300086E991E0E9CF992319F081E991E0E4CFCD
:100840008CE891E0E1CF992319F087E891E0DCCFC3
:1008500082E891E0D9CF992319F08DE791E0D4CFC8
:1008600088E791E0D1CF992319F083E791E0CCCFCD
:100870008EE691E0C9CF992319F089E691E0C4CFC3
:1008800084E691E0C1CF992319F08FE591E0BCCFC8
:100890008AE591E0B9CF992319F081E591E0B4CFD1
:1008A00088E491E0B1CF992319F083E491E0ACCFD3
:1008B0008EE391E0A9CF992319F089E391E0A4CFC9
:1008C00084E391E0A1CF992319F08BE291E09CCFD2
:1008D00082E291E099CF992319F08DE191E094CFD4
:1008E00088E191E091CF992319F083E191E08CCFD9
:1008F0008EE091E089CF992319F089E091E084CFCF
:1009000084E091E081CF992319F08FEF90E07CCFC4
:100910008AEF90E079CF992319F085EF90E074CFBA
:1009200080EF90E071CF992319F08BEE90E06CCFBF
:1009300086EE90E069CF992319F08FED90E064CFB7
:1009400088ED90E061CF992319F081ED90E05CCFC4
:100950008AEC90E059CF992319F085EC90E054CFC0
:1009600080EC90E051CF992319F08BEB90E04CCFC5
:1009700086EB90E049CF992319F081EB90E044CFCA
:100980008CEA90E041CF0E94B10D4FEF60E080E033
:100990000E949B0C82E00C94AE0DCF92DF92EF92FE
:1009A000FF926B017C010E94161E823091F0833011
:1009B000B1F08130D1F40E94F60D40E86FEF80E88D
:1009C0000E949E0CC701B601FF90EF90DF90CF9080
:1009D00008950E94F60D4FEF6FEF8FEBF1CF0E945D
:1009E000F60D4FEF6FEF80E4EBCF0E94EA0A60FF55
:1009F00004C04FEF60E080E0E3CF0E94310DE2CF12
:100A000081E008951F93CF93DF9300D000D00F9221
:100A1000CDB7DEB749835A836B8320916101898109
:100A20009A8121111BC06623A9F00E94D21C182FA5
:100A3000682F89819A810E947F1C69817A81812F28
:100A40000F900F900F900F900F90DF91CF911F910B
:100A50000C9447060E94AB1C182FEFCF0E94D21CAB
:100A600069817A81EDCFFC0140815181628173817E
:100A700084810C9402051F93CF93DF9390E0FC01D7
:100A8000E85CFD4F1491FC01E85CFC4FD491885464
:100A90009D4FFC01C491DD2319F081EE0E94921359
:100AA000CC2319F086EE0E949213812F0E94F1143C
:100AB000CC2319F086EE0E949B14DD2331F081EEE9
:100AC000DF91CF911F910C949B14DF91CF911F91D7
:100AD0000895FF920F931F93CF93DF938C01F62E0F
:100AE000F8018491882349F1E8012196813049F485
:100AF000FE011491812F0E949213812F0E949B145A
:100B000006C0823089F4FE0184910E9492138E0106
:100B10000F5F1F4F8F2D815018F3EFE9FFE03197E2
:100B2000F1F700C00000F7CF833019F4FE01849183
:100B3000E5CF0E943B05E801EACFDF91CF911F91FD
:100B40000F91FF90089560E00C9469050E947D0963
:100B50008FE39CE90197F1F700C000000E947D0936
:100B600080E00E94250980FF04C00E94631E0C944F
:100B70007A2008950E94A6050E94691E811102C074
:100B80000E94041F0E9425100C94EB030C94ED03AB
:100B9000089581E008950C94C905CF93C82F0E9451
:100BA000F1038C2FCF910C94CB0508950E94C117AF
:100BB0000E94D5052FEF84E39CE0215080409040B7
:100BC000E1F700C000000C947A200F931F93CF939D
:100BD000DF93EC010E9433058C01BE010E94EF03FC
:100BE0008823A9F1BE01C8010E94DA10882379F197
:100BF000BE01C8010E941B11882349F1BE01C80132
:100C00000E948B0E882319F18A81882341F00115F7
:100C10008CE51807D1F00E3D8CE51807F1F0063190
:100C20001C4551F50E94671D9A819923D9F08A7A53
:100C300091E009F490E090934401811111C089E2A0
:100C40000E94421D0E94B31D02C00E94D60580E092
:100C5000DF91CF911F910F9108950E94041FF7CF4C
:100C600085E3EECF80914401811104C089E20E94A6
:100C7000491DE8CF85E3FBCFCE01DF91CF911F91D6
:100C80000F910C94000590E080E00895089524E011
:100C9000829FC0011124FC01E70FF11DEE0FFF1F21
:100CA000EE0FFF1FE60FF11DEE0FFF1FE854FE4F82
:100CB000859194910895FC01EE0FFF1FE854FC4FBD
:100CC000859194910895CF93DF930E9447060E94E7
:100CD0004908EC01811521E5920708F049C081150A
:100CE00030E5930708F030C1883E910508F5803E55
:100CF000910570F5883A910570F4853A910508F0F0
:100D0000AEC08130910521F1009711F1049700F5F3
:100D1000D0E0C0E01DC08F3B910508F4ABC0805C03
:100D20009109C03CD105A0F30E945B06EC0110C004
:100D30008115904388F4C11580E2D80708F0FBC004
:100D4000C03FD10528F3CF3FD10509F008F4F1C029
:100D5000CE01DF91CF910895C11590E4D90708F035
:100D6000F0C0CE019927D3FFE9C0EC01D86CF0CFD9
:100D7000811529E5920760F5811538E5930708F09C
:100D800029C1811544E5940778F4C11583E5D80796
:100D900008F007C1C11592E5D90708F0F1C0DC2FB2
:100DA000CC27C16FD06AD4CF811525E5920708F40E
:100DB0000CC1811536E5930708F0AACF0E94E00820
:100DC000C82FD0E0DC2FCC27CC27DF71D062C0CF7A
:100DD0008D3B9C4509F403C1CE3B8CE5D807D0F48C
:100DE000CB3B9CE5D90709F4FDC008F0FEC0C11556
:100DF0003AE5D30708F08CCF8C2F8F700E94E00863
:100E000034E0D695C7953A95E1F7CF709C2FEC0169
:100E1000D0699ECFC03C4CE5D40709F4E9C060F42A
:100E2000CE3B9CE5D90709F4E6C0CF3BDC4509F091
:100E30006FCFC0E0D2ED8CCFCE019056811590429D
:100E400008F066CF8D2F8F710E94E00890E0982FF8
:100E5000882788279F719C012C2BE901B7CF853A01
:100E6000910509F4CBC0863A910509F0CAC0C2E8E1
:100E7000D0E46ECF883A910509F4C6C0893A91054D
:100E800009F4C5C08A3A910509F4C4C08B3A9105AA
:100E900009F4C3C08C3A910509F4C2C08B3B91059B
:100EA00009F4C1C08C3B910509F4C0C08D3A91058D
:100EB00009F4BFC0803B910509F4BEC08E3A91058C
:100EC00009F4BDC08F3A910509F4BCC0813B91057E
:100ED00009F4BBC0823B910509F4BAC0833B91057C
:100EE00009F4B9C0843B910509F4B8C0853B91056C
:100EF00009F4B7C0863B910509F4B6C0873B91055C
:100F000009F4B5C0883B910509F4B4C0893B91054B
:100F100009F4B3C08D3B910509F4B2C08E3B910535
:100F200009F4B1C08A3B910509F4B0C0C0E0D4E433
:100F30000FCFD0650DCFCE019F70F6CEEC01D06CF7
:100F400007CFDF70D06A04CFE4E096958795EA95E5
:100F5000E1F783702C2F26952695237040E2249F7D
:100F600090011124382B8C2F8370C1E0D0E002C097
:100F7000CC0FDD1F8A95E2F7C22BD32BDC68E8CEBD
:100F8000CE018370992721E030E002C0220F331F89
:100F90008A95E2F7C695C69580E2C89FE0011124C4
:100FA000EBCFCE018370992721E030E002C0220F01
:100FB000331F8A95E2F7C695C69590E2C99FE00176
:100FC0001124C22BD32BDA68C3CED82FCC27C46F01
:100FD000D06ABECED82FCC27C06FD06AB9CEC0E0C1
:100FE000D1EDB6CEC0E0D4EDB3CEC0E0D5EDB0CEFD
:100FF000C0E0D3EDADCEC0E0D0EDAACEC1E8D0E4E4
:10100000A7CEC3E8D0E4A4CEC2EED4E4A1CEC9EE0C
:10101000D4E49ECECAEED4E49BCEC5EBD4E498CE05
:10102000C6EBD4E495CEC3EBD4E492CEC4EBD4E4C7
:101030008FCEC7EBD4E48CCECCECD4E489CECDEC0F
:10104000D4E486CEC3E8D5E483CECAE8D5E480CE26
:10105000C2E9D5E47DCEC4E9D5E47ACEC1E2D6E4D6
:1010600077CEC3E2D6E474CEC4E2D6E471CEC5E254
:10107000D6E46ECEC6E2D6E46BCEC7E2D6E468CE46
:10108000CFE6D4E465CEC0E7D4E462CECAE2D6E4CB
:101090005FCE82389105B1F1B0F48133910509F446
:1010A00075C048F48932910509F469C08A32910506
:1010B00009F473C008958533910509F459C0893343
:1010C000910501F10895833E9105A9F138F4803E20
:1010D0009105F9F0823E910549F10895863E91050A
:1010E000A9F1873E9105C9F1843E910519F520913A
:1010F000450221FF1FC08091440284FD14C087EE89
:1011000090E00895209144022370A1F080EE90E0D9
:1011100008952091440220FD47C03091450230FFE0
:1011200009C024FF44C090E080E004C02091440244
:1011300022FDF7CF08952091440222FD3BC030915B
:10114000450230FDE3CF24FFF5CFEDCF20914402DF
:1011500023FFF0CF24FDE7CFD2CF2091440223FD1F
:101160002CC03091450231FFEECF84EE90E008951F
:101170002091440225FFDECF89E290E0089520917E
:10118000440225FFD7CF85E390E0089520914402E3
:1011900026FFD0CF8AE290E008952091440226FFF6
:1011A000C9CF81E390E0089589E390E0089583EE4C
:1011B00090E0089582EE90E0089586EE90E0089524
:1011C0009091440292FF06C0282F28712830F9F42C
:1011D000877F846093FF06C0282F28712831F1F49F
:1011E000877E84612091450220FF06C0382F387128
:1011F0003830D9F4877F816021FF06C0282F2871FD
:101200002831D1F4877E816194FD877E0895282F4F
:1012100024712430F9F68B7F8860DCCF282F24716D
:10122000243101F78B7E8861DDCF382F3171313069
:1012300019F78E7F8860E0CF282F2171213121F7A7
:101240008E7E8861E1CF08950895E82FF0E0EC5F8D
:10125000FD4F808108950895CF93DF93A5E2B1E01B
:1012600049E251E0C1E0D0E08D91E82FE295EF70C6
:10127000F0E061A18F709E0101C0220F8A95EAF70C
:10128000922F9095962391A382A1822B82A34A1735
:101290005B0751F7A1E2B1E045E251E0C1E0D0E0E7
:1012A0008D91E82FE295EF70F0E061A18F709E01C3
:1012B00001C0220F8A95EAF7922F9095962391A369
:1012C00082A1822B82A34A175B0751F7109200027A
:1012D0001092040210920102109205021092020272
:1012E00010920602109203021092070284E00E94FC
:1012F000030ADF91CF910C94BA057F928F929F924F
:10130000AF92BF92CF92DF92EF92FF920F931F9313
:10131000CF93DF9320E032E005E211E0712CEE2460
:10132000E394F12CE901B9909E01DE011E92F801CF
:1013300081918F01E82FE295EF70F0E091A18F701D
:10134000B70101C0660F8A95EAF7892F862B81A322
:1013500082A1A62EA0948A2182A380EA8A95F1F721
:1013600081E2C82E81E0D82E50E040E0E60189906D
:101370006E01882D82958F7090E0EC0188A19C9081
:1013800090E0D82DDF7002C095958795DA95E2F749
:1013900080FD37C08E2D042E01C0880F0A94EAF715
:1013A00089298C934F5F5F4F44305105F9F681A135
:1013B0008A2181A382A1682B62A381E09C919B1169
:1013C00001C080E0782AD2E024303D0709F0AACF9E
:1013D000272D44E064E072E080E092E00E94040A7D
:1013E0000E94C605872DDF91CF911F910F91FF902D
:1013F000EF90DF90CF90BF90AF909F908F907F90B5
:10140000089580E0CDCF0895FF920F931F93CF935F
:10141000DF93F82E092F162FD72FC42F222349F040
:1014200081E0809347010E942020909346018093A1
:101430004501809147018823A1F080914501909159
:1014400046010E942C20069760F0EF2DF02FA12F6F
:10145000BD2FCE0FDF2FD11DEC17FD0741F41092E9
:101460004701DF91CF911F910F91FF9008958191D6
:101470008D93F2CFAF92BF92CF92DF92FF920F93F4
:101480001F93CF93DF93362F472FE82FF0E0E953D8
:10149000FB4F71110DC06491762F862FDF91CF9194
:1014A0001F910F91FF90DF90CF90BF90AF90089564
:1014B000C72FD0E02491F22E022F10E056E0659F56
:1014C000C0011124EFEFF0E0BF010E94EE29832F4D
:1014D00090E0880F991F35E5369FD001379FB00DFA
:1014E00011248A1B9B0B982F990F980F6F01CC1A10
:1014F000DD0AC09ED001C19EB00DD09EB00D11245A
:101500008B2F949FA0011124452F55276F01C41ADA
:10151000D50AC09EA001C19E500DD09E500D112431
:101520005F01A91AB108AC9E6001AD9ED00CBC9EB3
:10153000D00C1124CD2CDD24EC19FD09E09FE00135
:10154000E19FD00DF09FD00D1124ED2F6230710579
:10155000A1F048F46115710569F06130710589F0F9
:10156000EB2F852F07C06430710571F088F066306D
:101570007105B1F76E2F722F91CFE22F2B2F8D2F88
:10158000F9CFE22F252FF6CFEB2F822F2D2FF2CF81
:101590002B2F8F2DE52FEECF0895CF93DF93762F4E
:1015A000E901682F842F0E943A0A798368838A832D
:1015B000DF91CF91089580910802982F9E7F29F4A2
:1015C000817082608093080208958433E8F381700B
:1015D0008263F8CF88E090E00C946D2ACF92DF927E
:1015E000EF92FF926B017C010E94DB0AB701A6011A
:1015F00088E090E0FF90EF90DF90CF900C948B2AE2
:10160000E8E0F2E083E0808311828FEF82838383BE
:10161000148260817181828193810C94EE0A8091A1
:10162000080280FF02C08695089580E008958091A9
:101630000C02833018F48F5F80930C0260910802D3
:101640007091090280910A0290910B020C94EE0AAB
:1016500080910C02882319F0815080930C026091D4
:1016600008027091090280910A0290910B020C9479
:10167000EE0A6091020170E08091080280FF0AC0CA
:101680008091490123E0829FC0011124835F9D4F17
:101690000C946A10809148019091010123E0829F8F
:1016A000F0011124E35FFD4F891750F7118210827A
:1016B00012828F5F3396F8CF9091080290FF14C08A
:1016C000909148012091010133E0939FF001112492
:1016D000E35FFD4F921710F00C94390B8183608308
:1016E00042839F5F3396F6CF0895CF93DF9300D068
:1016F0000F92CDB7DEB79091080290FF0AC09E010D
:101700002F5F3F4F0E94CD0A4B8169818A810E94E1
:101710005C0B0F900F900F90DF91CF910895CF93B6
:10172000DF93EC01EC81F0E0EE53FC4F4491E8E0F4
:10173000F2E0628181810E94750B8C818F5F8C83C6
:10174000DF91CF910895CF93DF93EC01E8E0F2E0D1
:10175000438162818C810E94750B8C818F5F8C83A9
:10176000DF91CF910895AF92BF92CF92DF92EF9227
:10177000FF920F931F93CF93DF9300D00F92CDB7BB
:10178000DEB7182FF62E042FE22E9091080290FF5C
:1017900029C0E92FE695AE2FB0E0A75DBE4F8C9132
:1017A000809351019E7F923059F59E012F5F3F4FEC
:1017B000812F0E94CD0A4B8169818A810E945C0B36
:1017C00010930902F0920A0200930B02EE2051F0EE
:1017D000609108027091090280910A0290910B02B7
:1017E0000E94EE0A0F900F900F90DF91CF911F9102
:1017F0000F91FF90EF90DF90CF90BF90AF90089542
:10180000823019F400910B02DBCF863019F410916D
:101810000902D6CF8930D9F3803191F6E0518E2F6D
:101820008170D82EE695F0E0EE53FB4FA590B49072
:10183000C12CBB2460910001C61618F00E94390B20
:10184000BFCF2C2D30E0A29EC001A39E900DB29E72
:10185000900D112470E00E94EE29812FD11013C049
:10186000860F40914801420F532F511D9A01220FBC
:10187000331F240F351F235F3D4F402F6F2D0E94D4
:10188000CD0AC394D7CF861BECCFE8E0F2E091817C
:10189000282F4381628188E0890F0C94B30B81E08B
:1018A0000C94450CE8E0F2E09181282F438162819D
:1018B00088EF890F0C94B30B81E00C94520CE8E094
:1018C000F2E0628128E0620F08F46FEF282F438175
:1018D00081810C94B30B81E00C945F0CE8E0F2E0A2
:1018E000628128E0621B08F460E0282F4381818137
:1018F0000C94B30B81E00C946E0CE8E0F2E04381B1
:1019000028E0420F08F44FEF282F628181810C9468
:10191000B30B81E00C947D0CE8E0F2E0438128E019
:10192000421B08F440E0282F628181810C94B30BA4
:1019300081E00C948C0C21E00C94B30B20E00C940F
:10194000B30BEF92FF921F93CF93DF93EC0110E064
:10195000EE24EA94F12C60910001161770F00E94B9
:10196000390B9A818C8190FF27C08F5F8C83DF9128
:10197000CF911F91FF90EF90089520914801422F41
:10198000410F5527551FCA019A01220F331F280FF7
:10199000391F235F3D4F70E0C7010E94022A962F36
:1019A0008C8140910B0260910A02199F800D1124D5
:1019B0000E94CD0A1F5FCFCF8150D8CF0F931F93C6
:1019C000CF93DF938C01FC01848195810196817016
:1019D000992795838483C0E0D5E580910001C817DD
:1019E00030F0DF91CF911F910F910C94390B209122
:1019F0004801422F4C0F5527551FCA019A01220F4B
:101A0000331F280F391F235F3D4F8C2F8695F80118
:101A100044815581840F952F911D817040910B0257
:101A200060910A028D9F802D11240E94CD0ACF5F04
:101A3000D4CFE8E0F2E080818E7F80836081718185
:101A4000828193810E94EE0A109252012FEF80E76B
:101A500092E0215080409040E1F700C000000C94DB
:101A6000390BE8E0F2E080818E7F80831092520192
:101A70002FEF80E792E0215080409040E1F700C0D6
:101A800000000C94390B60910802669570E04BE001
:101A900050E083E091E00E94582A892B19F481E0FC
:101AA000809352010E94202090934B0180934A0121
:101AB00008959091080290FF35C09170811128C05F
:101AC000926090930802662351F060910802709131
:101AD000090280910A0290910B020E94EE0A609125
:101AE0000802669570E04BE050E083E091E00E94D0
:101AF000582A892BA1F01092520181E080934D0168
:101B000040910B0260910A02809109020C949E0C94
:101B10008A3110F09263D5CF880F982BD2CF0E94D4
:101B2000430DEBCF0895682F90910802969581E0C0
:101B3000890F8A3108F081E00C94590D81E00C94F2
:101B4000930D682F9091080296958FEF890F09F4F5
:101B500089E10C94590D81E00C94A10D61E00C9485
:101B6000590DE8E0F2E080818160808386950C94D5
:101B7000AE0D8091080280FD0C94190D0C94B10DEE
:101B800060E00C94590D8091500181112EC00E948B
:101B9000691E811104C00E94041F0E94000B0E9454
:101BA000EA0A609308027093090280930A029093F4
:101BB0000B026E7F61F40E94000B0E94EA0A6093A0
:101BC00008027093090280930A0290930B020E940C
:101BD000DB0A109252018091080280FF03C08695B3
:101BE0000E94C00D81E0809350010895E8E0F2E08A
:101BF00080818160808386950C94C00D0F931F9324
:101C0000CF93DF9380915201882309F465C08091BE
:101C10005101E0910802E695E81BE0934C01823007
:101C2000C1F5F0E0E254FC4FE491CE2FD0E00FE894
:101C30001BE080914D01882389F010924D010E9494
:101C400020209E0120953095820F931F90934B0189
:101C500080934A0110924F0110924E0180914A01E7
:101C600090914B010E942C208C179D07A8F1E091C8
:101C70004A01F0914B01CE0FDF1FD0934B01C0936F
:101C80004A018AE491E0F801DF91CF911F910F9111
:101C90000994863049F4F0E0E554FC4FE491CE2FEE
:101CA000D0E003EA1BE0C5CF893051F4E695F0E0BF
:101CB000E854FC4FE491CE2FD0E001EA1CE0B9CF0C
:101CC000C8EED3E00EED1CE08F3009F4B2CFC0EDCA
:101CD000D7E00CEC1AE0ADCFDF91CF911F910F91BF
:101CE0000895FA01811101C0FB010994CF93DF939C
:101CF000C82FD62F0E940F0B8C1740F00E940F0B9D
:101D00008D1720F4DF91CF910C949E0D8C2FDF91D5
:101D1000CF910C94AE0D0F931F93CF938C01FB01C9
:101D2000C281CC2309F45DC00E94671D8272F80154
:101D3000E25CFC45E431F10538F4E953F54D0C94CF
:101D4000382A0E94B90DC0E08C2FCF911F910F91BE
:101D500008954BEA5DE06EE97DE00E94710EF3CFDD
:101D60004EE95DE06BEA7DE0F8CF4CE55CE06FE4C6
:101D70007CE0F3CF4FE45CE06CE57CE0EECF4AE73B
:101D80005CE06BE67CE0E9CF4BE65CE06AE77CE098
:101D9000E4CF48E95CE069E87CE0DFCF49E85CE05B
:101DA00068E97CE0DACF48E25BE067E17BE0D5CF31
:101DB00047E15BE068E27BE0D0CF81E00E94AE0DBE
:101DC000C2CF65E082E00E94760EBDCF68E086E07B
:101DD000FACF6EE089E0F7CF8FE0F0CF69E180E1E4
:101DE000F2CFC1E0B1CF0E94691E811102C00E94F2
:101DF000041F0E94971E80933D02803320F087705D
:101E0000886280933D0290913D02892F817090FFFE
:101E100004C0892F8695869586950C94CD0F809168
:101E20003D02982F969596959695953040F49F5F34
:101E3000990F990F990F8770892B80933D0280919C
:101E40003D02816080933D020E949B1E80913D0275
:101E50008695869586950C94CD0F80913D02982F9E
:101E6000987F79F0885080933D02887F91E009F453
:101E700090E080913D0290FB80F980933D020E94AA
:101E80009B1E80913D028695869586950C94CD0F7C
:101E900080913D0280FD13C0816080933D028130BE
:101EA00019F489E080933D0280913D020E949B1EBF
:101EB00080913D028695869586950C94CD0F089568
:101EC00080913D0280FF08C08E7F80933D020E947A
:101ED0009B1E80E00C94CD0F089580913D0280FD03
:101EE0000C94600F0C94480F90913D02892F8695B9
:101EF000869586958F5F8F7197708630D8F4880F9E
:101F0000880F880F892B80933D0280913D02887F46
:101F100091E009F490E080913D0290FB80F980937C
:101F20003D020E949B1E80913D0286958695869576
:101F30000C94CD0F90933D02E8CF863008F085E0F9
:101F400090913D029770282F220F220F220F922B83
:101F500090933D02987F21E009F420E090913D02AA
:101F600020FB90F990933D020C94CD0F0E949D0FA1
:101F700080913D020C949B1EE82FE295EF70F0E0FB
:101F800032A1282F2F7081E090E001C0880F2A95A0
:101F9000EAF78095832382A30895CF92DF92EF9290
:101FA000FF92863028F5811124C0909180009F7D9A
:101FB00090938000282F30E0AFEFBFEF0E943E2AC1
:101FC00025E030E040E050E00E94162AC9012C379D
:101FD00064E1360790F469E070E00E94EE297093A6
:101FE0008B0060938A00FF90EF90DF90CF90089570
:101FF00085E0909180009062DBCF2A50374D4F4FA3
:102000005F4F942F832F722F662725EF38E241E030
:1020100050E00E94162A69017A01CA01B9010E94A2
:10202000DE299B01AC01C701B6010E94DE29672FA2
:10203000782F892F99276115710521E08207910575
:1020400071F66FEF7FEFCBCF0895269A86E30E945B
:10205000BC0F82E28093800089E1809381008FEF42
:102060009FEF90938700809386000C94F30E3EB10F
:10207000242F209523233EB1432B3FB7F894680FBC
:10208000791F8617970711F43FBF0895FC015191FE
:10209000CF01E8E04EB9000000C057FF2EB9550F40
:1020A000000000C000C000C02EB900C0EA9591F742
:1020B000E8CF2DB1242B2DB99B01220F331F620FC6
:1020C000731F0E94371087EC90E00197F1F700C072
:1020D0000000089544E00C9459100F931F93CF9380
:1020E000DF93C62FD42F022FFC0182818823C9F0F1
:1020F000609355010E9420209093540180935301D6
:1021000080E28C0F883008F050C0C77081E001C0B9
:10211000880FCA95EAF7DF91CF911F910F910C9428
:10212000041510915501161335C0809153019091FB
:1021300054010E942C20883C910560F5C0E2CD0F2F
:102140001D17B9F080E2810F883040F4177081E0EC
:1021500001C0880F1A95EAF70E940B15C83048F4A1
:1021600081E09D2F977001C0880F9A95EAF70E9431
:102170000415802F0E94F114C830B8F4D77081E0A4
:1021800001C0880FDA95EAF7DF91CF911F910F9187
:102190000C940B1580E28C0F883038F4C77081E006
:1021A00001C0880FCA95EAF7EFCFDF91CF911F9159
:1021B0000F9108959C01CB01233F4CE5340731F189
:1021C00090F4283DFCE53F07E9F0293D4CE5340754
:1021D00069F1273D3C4579F426E241EE61EE0E942B
:1021E0006D1080E00895253FFCE53F07B9F090F0C1
:1021F000263F3C45B9F0FC0182818823D1F0109242
:102200005501089527E245EE65EEE9CF26E241EE5D
:1022100060EEE5CF27E245EE64EEE1CF26E241EE47
:1022200062EEDDCF27E245EE66EED9CF28E241E04F
:10223000EBCF81E00895CF93DF93EC01FB01828126
:10224000882309F419C1C230FCE5DF07C0F1C631AB
:102250009CE5D90730F09E012A5F3C4529303105C5
:1022600070F50E947C1E9093450280934402C03119
:10227000ECE5DE0709F4CFC008F05BC0C8308CE5A0
:10228000D80709F4B6C088F5C430ECE5DE0709F4D8
:10229000A8C0C0F4C2308CE5D80709F49CC0809176
:1022A00044028260C330DC4509F498C08091440246
:1022B000909145020E948A1E0E94C11780E0DF9122
:1022C000CF910895809144028061C630ECE5DE072D
:1022D00009F484C0809144028860C730DC4508F46A
:1022E0007DC080914402806279C0CC308CE5D807F3
:1022F00009F489C070F4809144028C60CA30ECE526
:10230000DE0709F46BC008F478C0809144028E7F28
:1023100065C0CE308CE5D80709F479C080914402BD
:102320008B7FCF30DC4508F459C0809144028F7E0A
:1023300055C0CB3FECE5DE0709F457C030F5C3319B
:102340008CE5D80709F46FC078F4C131ECE5DE07FD
:1023500009F465C0C231DC4509F0A8CF0E94C1175D
:10236000809144028F773AC0C5318CE5D80709F4D3
:1023700062C008F476C0809145028160CA3FDC45A6
:1023800009F094CF8093450291CFCF3FFCE5DF0762
:1023900009F44DC088F4809145028D7FCD3F9CE5C6
:1023A000D90781F3809145028E7FCE3FDC4550F303
:1023B000809145028360E6CFC130FDE5DF0709F477
:1023C00059C008F444C080E0C230DD4509F06ECF4A
:1023D0000E94061F6BCF809144028160809344026B
:1023E00065CF809144028460F9CF8091450282607C
:1023F000C9CF809144028064F1CF0E94C1178091BF
:1024000044028068EBCF809144028D7FE7CF8091BA
:102410004402877FE3CF809144028F7DDFCF80919C
:1024200044028F7BDBCF80914402837FD7CF8091A2
:1024300045028C7FA7CF8091440282FB992790F9B7
:1024400021E0922790FB82F990FB83F9C7CF80911E
:102450004502982F909591708E7F892B90FB81F982
:1024600091CF0E94C11790914402892F97FB87F961
:102470008058B4CF81E0ACCF81E021CF90935B0155
:1024800080935A010895E0915A01F0915B013097D1
:1024900021F00190F081E02D099480E00895E09111
:1024A0005A01F0915B01309799F02091200122238D
:1024B00059F02091440227FF07C0DC012C911196AE
:1024C0002C93119725E02C930280F381E02D099441
:1024D0000895E0915A01F0915B01309739F022E0C4
:1024E000DC012C930480F581E02D0994089520915E
:1024F0005801309159012817390771F0909359010B
:1025000080935801E0915A01F0915B01309721F0DE
:102510000680F781E02D09940895209156013091AD
:1025200057012817390771F090935701809356018E
:10253000E0915A01F0915B01309721F00084F18520
:10254000E02D0994089585B7806885BF85B78068B8
:1025500085BF0895089508950C94AA1208950C94C7
:10256000AE120E94A3120E94AB120C94AC1281E036
:1025700008950E9417200E942C090E949E200E940C
:10258000F30E0E94C30D0C94AF12AF92BF92CF9284
:10259000DF92EF92FF920F931F93CF93DF93CDB70C
:1025A000DEB72A970FB6F894DEBF0FBECDBF0E94EC
:1025B0007D090E94B712882309F463C08DE5A82E17
:1025C00081E0B82E10E000E0C02E802F0E94250987
:1025D000E82EF501D1905F01D81609F44CC0809126
:1025E000D10181FD0E942B0980E0FF24F394DE24B9
:1025F0009D2D9F21D9F18E83CF82EF2081E009F4B8
:1026000080E088870E9420208160782F9A878987C0
:102610004E815F8168858A850E946313F801E35AC1
:10262000FE4F8081F826F0820E94FE0D0E94241049
:102630000E942B220E94431290915C01891791F114
:102640000E94431280935C012A960FB6F894DEBF75
:102650000FBECDBFDF91CF911F910F91FF90EF90F3
:10266000DF90CF90BF90AF900C94CD058F5FFF0CA3
:10267000843009F0BDCF0F5F1F4F0430110509F002
:10268000A3CF8FEF89838A831B820E9420208160E1
:10269000782F9D838C8349815A816B818D810E9423
:1026A0006313C2CF2A960FB6F894DEBF0FBECDBF1C
:1026B000DF91CF911F910F91FF90EF90DF90CF901E
:1026C000BF90AF900895CF93DF93CDB7DEB72B9730
:1026D0000FB6F894DEBF0FBECDBF4F835887698712
:1026E0007A878B871E821D8285E0FE013796DE0188
:1026F000119601900D928A95E1F749815A816B817B
:102700007C818D819E812B960FB6F894DEBF0FBE23
:10271000CDBFDF91CF910C94611AFC018081918132
:102720000C94141D882309F405C18238B9F40E9461
:10273000431281FDFFC089E30E94421D0E94B31D28
:102740002FEF81EE94E0215080409040E1F700C0EF
:10275000000089E30E94491D0C94B31D8338A1F445
:102760000E94431280FDE6C083E50E94421D0E9444
:10277000B31D2FEF81EE94E0215080409040E1F7AF
:1027800000C0000083E5E6CF8438A1F40E94431224
:1027900082FDD0C087E40E94421D0E94B31D2FEF2E
:1027A00081EE94E0215080409040E1F700C00000AD
:1027B00087E4D0CF9CEF980F913A18F40E94421D05
:1027C000CBCF90E2980F983050F4877091E001C021
:1027D000990F8A95EAF7892F0E946A1DBDCF9BE564
:1027E000980F933070F4853A31F0863A39F083E8E7
:1027F00090E00C94771281E890E0FBCF82E890E0C3
:10280000F8CF98E5980F973108F08EC0883A09F410
:1028100046C0893A09F446C08A3A09F446C08B3A60
:1028200009F446C08C3A09F446C08B3B09F446C013
:102830008C3B09F446C08D3A09F446C0803B09F44C
:1028400046C08E3A09F446C08F3A09F446C0813B2F
:1028500009F446C0823B09F446C0833B09F446C0F4
:10286000843B09F446C0853B09F446C0863B09F425
:1028700046C0873B09F446C0883B09F446C0893B03
:1028800009F446C08D3B09F446C08E3B09F446C0AE
:102890008A3B09F446C090E080E00C948D1282EEF1
:1028A00090E0FBCF89EE90E0F8CF8AEE90E0F5CF94
:1028B00085EB90E0F2CF86EB90E0EFCF83EB90E0FA
:1028C000ECCF84EB90E0E9CF87EB90E0E6CF8CECA7
:1028D00090E0E3CF8DEC90E0E0CF83E891E0DDCFB6
:1028E0008AE891E0DACF82E991E0D7CF84E991E0FC
:1028F000D4CF81E292E0D1CF83E292E0CECF84E2E6
:1029000092E0CBCF85E292E0C8CF86E292E0C5CFDD
:1029100087E292E0C2CF8FE690E0BFCF80E790E001
:10292000BCCF8AE292E0B9CF803F20F00E943921EB
:102930000C9420220895882309F452C0823871F43F
:102940000E94431281FF4CC089E30E94421D0E94F5
:10295000B31D89E30E94491D0C94B31D833859F4BB
:102960000E94431280FF3CC083E50E94421D0E94EA
:10297000B31D83E5EFCF843859F40E94431282FFE0
:102980002FC087E40E94421D0E94B31D87E4E2CF5E
:102990009CEF980F913AF0F290E2980F983050F433
:1029A000877091E001C0990F8A95EAF7892F0E94FC
:1029B000701DD2CF9BE5980F933020F490E080E01B
:1029C0000C94771298E5980F973120F490E080E00E
:1029D0000C948D12803F20F00E94A1210C942022A3
:1029E0000895CF93C82F0E949213C93349F42FEF53
:1029F00087EE93E0215080409040E1F700C0000056
:102A00008C2FCF910C949B14882321F00E946A1D77
:102A10000C94B31D0895882321F00E94701D0C941E
:102A2000B31D0895BF92CF92DF92EF92FF920F9362
:102A30001F93CF93DF936C01D62FC72FFC01058125
:102A400002950F70128111110E94871D0E94601D56
:102A5000E82E882371F01123B1F080E28D0F8830C9
:102A600090F082E00E94FE1D0E94601D91E0E82E21
:102A7000E926BC2EB2949FE0B922EB2DF0E0E5529E
:102A8000F54D0C94382AE12CF4CF0C2F0F70C07F39
:102A900011F00295007F1123A9F0002359F080E284
:102AA0008D0F883010F0D11109C0802F0E946A1D4F
:102AB0000E94B31D8D2F0E94921314C0802F0E947C
:102AC0007A1DF6CF8D2F0E949B14002359F080E2CF
:102AD0008D0F883010F0D1112CC0802F0E94701DF6
:102AE0000E94B31D2B2D2850330B2430310520F4C8
:102AF0000E9443120E94CD05EE2009F4F8C10E9405
:102B00005C1D80FDF4C1F60112820E94561D0E94D8
:102B1000E31BC6010E9481170E94561DDF91CF91D1
:102B20001F910F91FF90EF90DF90CF90BF900C948A
:102B3000041C802F0E94801DD3CFFC2FFF70FF2E1E
:102B4000C07FC03219F0F29480EFF822DD2369F0E3
:102B5000D13049F1112391F1002351F1F601858122
:102B600080FFA8CF8F70858323C0112381F00111CE
:102B700006C00E949A1D8F290E940415B3CF013010
:102B8000C1F70E949A1D8F290E94A01DABCF011191
:102B900006C00E94A91D8F2D0E940B15A3CF0130E6
:102BA00009F4A0CFF6CF112329F0063008F09ACF10
:102BB0008F2DE2CF053008F095CFEDCF002359F3EC
:102BC000D93349F4FFEF27EE33E0F1502040304095
:102BD000E1F700C000008D2F0E949B1483CF8C2F43
:102BE00086958695837069F0813009F07BCF8D2FB3
:102BF0009C2F9370111102C090E080E00E948D1212
:102C000071CF8D2F9C2F9370111102C090E080E046
:102C10000E94771267CF112309F1D53F99F0D63F73
:102C2000B9F0D43F49F480913E0290913F02816017
:102C300090933F0280933E028D2F0E9439210E9483
:102C4000202250CF80913E0290913F028260F0CFCF
:102C500080913E0290913F028460EACFD53F89F097
:102C6000D63FA9F0D43F49F480913E0290913F02B3
:102C70008E7F90933F0280933E028D2F0E94A12170
:102C8000DECF80913E0290913F028D7FF2CF809106
:102C90003E0290913F028B7FECCF8C2F837009F026
:102CA00041C011111FCF4D2F429546954770440FDB
:102CB000440F0D2F0F7010E030E020E0042E04C010
:102CC000000F111F221F331F0A94D2F760E070E03B
:102CD000CB01D4FF0FC06FE070E080E090E004C053
:102CE000660F771F881F991F4A95D2F760957095D8
:102CF00080959095C695C695C370602B712B822BDD
:102D0000932BC23049F058F4C13019F00E94971B40
:102D1000E9CE0E94851BE6CE0E94A91BE3CE0E944D
:102D2000831BE0CE8695112311F08C2F81708823B0
:102D300009F4D8CE4D2F429546954770440F440F65
:102D40000D2F0F7010E030E020E0042E04C0000FC3
:102D5000111F221F331F0A94D2F760E070E0CB01ED
:102D6000D4FF0FC06FE070E080E090E004C0660F19
:102D7000771F881F991F4A95D2F7609570958095A7
:102D80009095C695C695C370602B712B822B932BA3
:102D9000C23049F058F4C13019F00E945A1CA2CE3A
:102DA0000E94481C9FCE0E946C1C9CCE0E94BD1BA2
:102DB00099CECF70112329F08C2F0E94E31B8D2F09
:102DC000DBCE8D2F0E940B158C2F0E94041C8ACE07
:102DD000D23F89F160F4D03FC9F0D13F29F11123EE
:102DE00009F442C0011166CE8C2F8F7121C0D33FF0
:102DF00039F1D43FA1F7112369F1CF718C2F0E94D3
:102E0000E31B63E08C2F0E94E91D6CCE112341F07F
:102E1000053008F067CE8C2F8F710E94271C62CE80
:102E2000063008F05FCEF7CF8C2F8F71112369F237
:102E30000E94E31B57CE8C2F8F711123C9F3C5CF8E
:102E4000112329F08C2F8F710E94CE1B4BCE0E9434
:102E5000C91B48CE81E00E94FE1D023008F442CE1C
:102E600082E00E94FE1D3ECE002359F0D93309F0C6
:102E7000B2CE8FEF97EEE3E081509040E040E1F773
:102E8000A8CE8C2F8F71A1CF4C2F4F706D2FC60104
:102E90000E9443060E94FB1A25CE111123CECF704B
:102EA000C230B1F040F4CC2381F0C13009F01ACE29
:102EB0000E942D0F17CEC43089F068F080E0C53035
:102EC00009F010CE0E94B60F0DCE0E940F0F0ACE51
:102ED0000E946D0F07CE0E94740F04CE85E0F2CFE2
:102EE0004C2F4F706D2FC6010E944606FBCDDF911F
:102EF000CF911F910F91FF90EF90DF90CF90BF90F7
:102F000008950F931F93CF93DF93EC018B819C81E6
:102F1000892B29F08881998189238F3F29F4DF91BA
:102F2000CF911F910F910895CE010E94E50588234E
:102F3000B1F3688179818A810E941E1D8C010E94F3
:102F40007E1C0E94821BB801CE01DF91CF911F91A0
:102F50000F910C9412150E94871D0E94971D0E94CC
:102F6000B31D0E94C2220E94202290E080E00E94B5
:102F7000771290E080E00C948D120E94501D0C940A
:102F8000AB170E94771D0C94BD17E92FE295EF70E7
:102F9000E250EE3070F4F0E0E551F54D0C94382A33
:102FA000803F19F020F4883E20F481E00895843FAA
:102FB000E1F380E00895883EC0F3813FD1F7F5CF7B
:102FC00093FB882780F908950E94141D0C94C5175F
:102FD000CF93DF9300D000D00F92CDB7DEB70F9024
:102FE0000F900F900F900F90DF91CF910895CF9396
:102FF000DF9300D000D000D0CDB7DEB726960FB655
:10300000F894DEBF0FBECDBFDF91CF9108951F931F
:10301000CF93DF93C091620116E0809163018C131E
:1030200004C0DF91CF911F910895D0E01C9FF00163
:103030001D9FF00D1124EC59FE4F4081518162819A
:103040007381848195810E94F7172196C770E5CF1F
:103050004091940150919501609196017091970172
:1030600080919801909199010C94F7171F93CF9339
:10307000DF9380919901807FC1F48091960188232C
:10308000A1F080916201C0916301609194017091FF
:1030900095014091970150919801D62FD723DA01DD
:1030A000A095B09516E0C81304C0DF91CF911F9191
:1030B000089590E04115510511F0DF3F31F401967C
:1030C0008770F1CF2A0F3B1F17C0189FF001199F7F
:1030D000F00D1124EC59FE4F21812713F0CF2081F0
:1030E0002613EDCF22812111EACF238134812417C9
:1030F000350740F3241B350B283C310500F72091A0
:1031000099012F7020612093990126E0289FF001FA
:10311000299FF00D1124E759FE4F80818F70806147
:10312000808384E991E00E948117DF91CF911F9104
:103130000C940718BF92CF92DF92EF92FF920F93F9
:103140001F93CF93DF93CDB7DEB761970FB6F89497
:10315000DEBF0FBECDBF8C0185E0F801DE011D96FC
:1031600001900D928A95E1F7D8014C9111965C91EE
:1031700011971296EC901297809197019091980177
:10318000009709F47FC12091940130919501622F3D
:1031900063236F3F09F476C11396CD90DC90B09015
:1031A0009601BB2009F411C1C816D906D0F1F60169
:1031B000E81BF90BCF01FF24F394883C910508F03C
:1031C000F12C80919901982F907FFF2009F4B8C0CD
:1031D00091117FC0FE2C351329C0241327C0E110A4
:1031E00025C08F708061809399010E94281884E91E
:1031F00091E00E94811780919901D80115968C93D6
:103200008F2D61960FB6F894DEBF0FBECDBFDF9154
:10321000CF911F910F91FF90EF90DF90CF90BF90D3
:103220000895809590958C0D9D1DC5CFCD2829F0D2
:10323000852F84238F3F09F041C180E0B82FB17002
:10324000DB2E80FF3CC0809162012091630136E05B
:10325000821315C04D875E878D859E850E94141D43
:10326000292F22952F702230F0F0243018F59F700E
:10327000F1F0F8019581907FD1F4D12C1EC090E03F
:10328000389FF001399FF00D1124EC59FE4F6181F8
:10329000651306C06081641303C06281E6120FC02B
:1032A00001968770D5CF9F7011F0882331F3805E2F
:1032B000883018F3C8010E948117FD2CA1CFEE20A1
:1032C00009F49ECF80919901816080939901F12C3E
:1032D00097CF351306C0241304C0D801EE2009F49B
:1032E0009AC04D875E878D859E850E94E41788234E
:1032F00019F1EE2009F180919901803270F020914E
:1033000094013091950138872F831986DB86CA8610
:103310008C87CE0107960E94811786E0F801A4E908
:10332000B1E001900D928A95E1F70E9436180E9453
:103330002818FF24F39464CFC8010E948117F9CFA5
:10334000911113C07C2DD98AC88A6E2D89890E945B
:10335000E81784E991E00E94811786E0E4E9F1E052
:10336000DF011D928A95E9F763C0351312C024135B
:1033700010C0E1100EC0F8018583C8010E948117BA
:10338000E4E9F1E086E0DF011D928A95E9F7FB2C84
:1033900037CF4D875E878D859E850E94E4178823F1
:1033A00059F2EE2049F280919901803208F4B5CFAC
:1033B00020919401309195013A8329831B82DD820B
:1033C000CC828E83CE010196A6CFC816D90698F17D
:1033D000F601E81BF90BCF01F12C883C910508F0B0
:1033E00049C0FE2CEE2009F4A7CF351332C02413B8
:1033F00030C08091990180FD23C0982F907F01F10A
:10340000D80115968C931597903F39F0982F907F9F
:10341000905F8F70892B15968C93C8010E9481173D
:1034200086E0F801A4E9B1E001900D928A95E1F7F8
:103430000E942818E5CE809590958C0D9D1DCCCFCF
:1034400086E0F801A4E9B1E001900D928A95E1F7D8
:10345000D7CE4D875E878D859E850E94E4178111AA
:103460005CCF80919901816080939901C8010E948D
:103470008117C6CE7C2DD98AC88A6E2D89890E9473
:10348000E8176BCFEE2009F457CF4D875E878D8507
:103490009E850E94E417F82E882309F44DCF86E01C
:1034A000F801A4E9B1E001900D928A95E1F784E971
:1034B00091E00E948D130E943618BACF81E08E25CC
:1034C000BDCE1F93CF93DF93CDB7DEB72C970FB64A
:1034D000F894DEBF0FBECDBF4F83588769877A87C8
:1034E0008B879C87CE0107960E949A18882369F0E3
:1034F0008A859B85892B39F04F815885842F8523B8
:103500008F3F09F071C016E05FC086E0FE0137967C
:10351000DE01119601900D928A95E1F78A859B85CF
:10352000892B89F388859F8189238F3F61F32091BF
:10353000630130E0C90101968770992740916201CB
:103540004817190671F40E94C11710926301109276
:10355000620186E0E4E9F1E0DF011D928A95E9F776
:10356000D2CF96E0929FD001939FB00D1124AC5919
:10357000BE4FFE01319601900D929A95E1F780932E
:1035800063010E940718BFCF819FC00111248C598D
:103590009E4F0E949A188823E9F0E09162011E9FD5
:1035A000F0011124EC59FE4F4081518162817381F9
:1035B000848195810E94F7178091620190E00196C5
:1035C00087709927809362018091620190916301D5
:1035D0008913DACF2C960FB6F894DEBF0FBECDBF9D
:1035E000DF91CF911F91089569857A858B859C85A0
:1035F0000E94F71788CFEF92FF920F931F93CF93FC
:10360000DF938C01892B81F0F12CEE24E394E80107
:103610002196F8018491843770F4843008F05FC0FB
:103620008130B1F08230A1F1DF91CF911F910F91E4
:10363000FF90EF900895853709F44CC008F43DC021
:103640009CE7980F903780F78F770E949B1449C0B2
:103650000E5F1F4FFE01849190E2980F983060F446
:103660008770FE2D01C0FF0F8A95EAF78F2F0E9409
:103670008A1D0E94B31D02C00E9492138F2D81509B
:1036800030F2EFE9FFE03197F1F700C00000F7CF2B
:103690000E5F1F4FFE01849190E2980F983050F416
:1036A0008770FE2D01C0FF0F8A95EAF78F2F0E94C9
:1036B000901DDFCF0E949B14E1CF0E5F1F4FFE01D4
:1036C000C491C150D8F28FE99FE00197F1F700C093
:1036D0000000F7CF0E5F1F4FFE01F490CFCF0E9486
:1036E00092138E01CBCF08950C94731B0E94741B10
:1036F0006093A8017093A9018093AA019093AB01F4
:103700000C94AB1708950C94761B0F931F930091A4
:10371000A8011091A9012091AA013091AB01602B61
:10372000712B822B932B1F910F910C94761B0F936F
:103730001F930091A8011091A9012091AA01309135
:10374000AB0160237123822393231F910F910C946B
:10375000761B0F931F930091A8011091A90120914E
:10376000AA013091AB0160277127822793271F910F
:103770000F910C94761B0C94CD040E94BB1B60939C
:10378000A4017093A5018093A6019093A7010C94C6
:10379000AB1760E070E0CB010C94BD1B0F931F933F
:1037A00041E050E060E070E08A019B0104C0000F3E
:1037B000111F221F331F8A95D2F7C901B8011F912B
:1037C0000F910C94BD1B0F931F9341E050E060E0FC
:1037D00070E004C0440F551F661F771F8A95D2F70B
:1037E0008091A4019091A501A091A601B091A7019B
:1037F0008A019B01082B192B2A2B3B2BC901B801ED
:103800001F910F910C94BD1B0F931F9341E050E04B
:1038100060E070E004C0440F551F661F771F8A9553
:10382000D2F7CB01BA016095709580959095009183
:10383000A4011091A5012091A6013091A701602358
:103840007123822393231F910F910C94BD1B0F931F
:103850001F9341E050E060E070E004C0440F551F4A
:10386000661F771F8A95D2F78091A4019091A501D8
:10387000A091A601B091A7018A019B0108271927F1
:103880002A273B27C901B8011F910F910C94BD1B3A
:103890000F931F930091A4011091A5012091A601FF
:1038A0003091A701602B712B822B932B1F910F91CD
:1038B0000C94BD1B0F931F930091A4011091A501BF
:1038C0002091A6013091A7016023712382239323C5
:1038D0001F910F910C94BD1B0F931F930091A40196
:1038E0001091A5012091A6013091A70160277127B1
:1038F000822793271F910F910C94BD1B0895990F58
:10390000990F890F982F977041E001C0440F9A9545
:10391000EAF786958695869595E0899FF0011124B2
:10392000E656FE4F30E020E070E05191DF01119744
:10393000CB01022E02C0969587950A94E2F781701A
:1039400081958527842385278C932F5F3F4F2530D2
:10395000310559F70895990F990F890F982F97708E
:1039600086958695869525E0829FF0011124E6567E
:10397000FE4F50E040E080E0219130E0092E02C08F
:10398000369527950A94E2F721703327042E01C05B
:10399000220F0A94EAF7822B4F5F5F4F45305105A3
:1039A00059F70895BF92CF92DF92EF92FF920F9353
:1039B0001F93CF93DF938C01C090A401D090A501F9
:1039C000E090A601F090A7018091A8019091A90133
:1039D000A091AA01B091AB01C82AD92AEA2AFB2AF0
:1039E000CFE1D0E0BC2ED701C6010C2E04C0B695A5
:1039F000A795979587950A94D2F780FD0EC02197D9
:103A000088F7B12C8B2DDF91CF911F910F91FF90F3
:103A1000EF90DF90CF90BF900895B8018C2F0E9457
:103A20006306019761F3EECFCF93DF93EC010E9421
:103A3000D21CBE01DF91CF910C9463061F93CF93EC
:103A4000DF93EB0190916101992331F0CB01DF917C
:103A5000CF911F910C94141D882379F0CB010E9403
:103A6000D21C182F682FCE010E947F1CBE01812F0F
:103A7000DF91CF911F910C946306CB010E94AB1C88
:103A8000182FF4CF682F80910E0190910F010C94A4
:103A90006F1F682F80910E0190910F010C947A1F77
:103AA00080910E0190910F010C94851F8091AC01C3
:103AB00085958595859508958091AC0187700895C9
:103AC0009091AC01977081E009F480E008958091B5
:103AD000D00108959091D001892B8093D001089551
:103AE00080959091D00198239093D00108951092E1
:103AF000D00108959091CF01892B8093CF01089533
:103B000080959091CF0198239093CF0108951092C2
:103B1000CF0108959091CE01892B8093CE01089515
:103B200080959091CE0198239093CE0108951092A4
:103B3000CE0108958091AD01089508950C949D1DC6
:103B40009091AD01981721F08093AD010C949E1DCA
:103B500008958091AD01882329F01092AD0180E095
:103B60000C949E1D0895E0910E01F0910F0180913B
:103B7000D0018083E0910E01F0910F01808190913E
:103B8000CF01892B8083E0910E01F0910F0180819C
:103B90009091CE01892B80839091AD01992381F082
:103BA000E0910E01F0910F018081892B808380913B
:103BB0000E0190910F010E940B1F81110E94A91DFF
:103BC00080910E0190910F010C944F1208950C9466
:103BD000E61D98E0899F90011124622B6093AC014F
:103BE0000E94E31B8091AC018595859585950C9489
:103BF000E71D1092AC0180E00C94E71D9091AC01A0
:103C0000809589238093AC01282F277071F4282F89
:103C1000082E000C330B9217130639F08595859505
:103C200085950E94041C0C94F91D0895CF92DF9293
:103C3000EF92FF926C01EE24FF2420E0C114D10426
:103C4000E104F10419F0C701B60120E1C72ED82E16
:103C5000E92EFF24C114D104E104F10419F0285F16
:103C6000C701B6016B017C0154E0F694E794D79448
:103C7000C7945A95D1F7C114D104E104F10419F0A5
:103C80002C5FC701B6016B017C0142E0F694E7941A
:103C9000D794C7944A95D1F7C114D104E104F10433
:103CA00019F02E5FC701B6019695879577956795B0
:103CB000672B682B692B09F02F5F822FFF90EF9005
:103CC000DF90CF9008956FEF7FEF90E080E00C944D
:103CD000972A90E080E00E94732A21E08C3E9E4F5C
:103CE00009F020E0822F089582E090E00C94652A8C
:103CF00083E090E00C94652ACF9384E090E00E94EA
:103D0000652AC82F81E290E00E94652A982F8C2FA7
:103D1000CF910895CF93C92F682F84E090E00E943F
:103D2000792A6C2F81E290E0CF910C94792A86E079
:103D300090E00C94652A682F86E090E00C94792A34
:103D4000AB01BC018FE090E00C948B2A60E070E046
:103D5000CB010E94A01E0C94C3046CEE7EEF90E099
:103D600080E00E94972A60E082E090E00E94792A39
:103D700060E083E090E00E94792A1092A8011092FE
:103D8000A9011092AA011092AB0160E084E090E0DA
:103D90000E94792A60E081E290E00E94792A60E046
:103DA00085E090E00E94792A60E086E090E00E9441
:103DB000792A6FEF87E090E00E94792A40E050E096
:103DC000BA0188E090E00E948B2A60E08DE090E0EC
:103DD0000E94792A40E050E0BA0188E190E00E9418
:103DE0008B2A60E087E190E00E94792A40E050E071
:103DF000BA018CE190E00E948B2A60E080E290E0C2
:103E00000E94792A0C94A61E0C94AD1E682F8EE099
:103E100090E00C94792AFC0132968091200188234D
:103E200021F0809144029EE187FF96E080E091506E
:103E300008F4089521912223D1F38F5FF8CF9C01DC
:103E4000FC0132969FEF80E04191461751F09F3F71
:103E500019F4411101C0982F8F5F8630A9F79F3F59
:103E600009F40895290F311D97FD3A95F9016283F0
:103E70000895FC01329608962191261303C0DF01B4
:103E800011971C92E817F907B9F70895E62FE69500
:103E9000E695E695EE3168F4E80FF92FF11D6770AD
:103EA00021E030E001C0220F6A95EAF78281822B7F
:103EB00082830895E62FE695E695E695EE3170F457
:103EC000E80FF92FF11D677021E030E001C0220FEB
:103ED0006A95EAF72095828128232283089520910C
:103EE0002001222329F02091440227FD0C94461F33
:103EF0000C941F1F20912001222329F020914402BD
:103F000027FD0C945A1F0C94391FFC0132968091A6
:103F10002001882351F08091440287FF06C08EE182
:103F2000DF011D928A95E9F7089586E0F9CF08959B
:103F300008950C94981F0E94991F80914A02843022
:103F400061F11092D20188E190E020E40FB6F8947C
:103F5000A895809360000FBE2093600080E00E94CF
:103F6000CD0F80E00E94CD050E94991F83B7817F0D
:103F7000846083BF83B7816083BF7894889583B75B
:103F80008E7F83BF0FB6F894A895809160008861FA
:103F900080936000109260000FBE08950895CF9343
:103FA0000E94971F0E947D090E94CE1FC0E08C2FA7
:103FB0000E942509811105C0CF5FC430C1F7CF91A0
:103FC000089581E0FCCF08950C94E31F0E94C1176F
:103FD0000E94F30E0E9443120E94CD050C94E41F30
:103FE0001F921FB61F9211248F939F93AF93BF937D
:103FF0008091D201811113C08091400290914102C1
:10400000A0914202B09143024196A11DB11D80933F
:10401000400290934102A0934202B0934302BF91A9
:10402000AF919F918F911F901FBE1F90189582E0B6
:1040300084BD93E095BD9AEF97BD80936E0008957F
:104040002FB7F8948091400290914102A0914202D2
:10405000B09143022FBF0895CF92DF92EF92FF926B
:104060000F931F932FB7F894409140025091410253
:1040700060914202709143022FBF6A017B01EE24DE
:10408000FF248C0130E020E0C016D106E206F306E2
:1040900050F0481B590BCA011F910F91FF90EF90F0
:1040A000DF90CF90089541505109F3CF78941F923B
:1040B0001FB61F9211248F939F93AF93BF9380914C
:1040C000400290914102A0914202B09143020196B8
:1040D000A11DB11D8093400290934102A093420222
:1040E000B0934302BF91AF919F918F911F901FBEDC
:1040F0001F90189581E08093E00080E28093D800C3
:104100001092C9008FE19EE40197F1F700C0000012
:1041100087E090EBDC018093530290935402A093CC
:104120005502B093560288E19CE00FB6F894A8952A
:10413000809360000FBE90936000FFCF0E94691EC5
:10414000811102C00E94041F0E94741E8093D1013D
:104150000E947C1E90934502809344020E94781E28
:10416000682F70E090E080E00C94831B8091D60172
:1041700080FF12C06091130185E0689FB001112497
:10418000759567957595679560387105A8F5611502
:104190007105A1F1862F089581FF09C06091130177
:1041A00085E0689FB001112475956795EDCF60910A
:1041B000130182FD0AC08091D5018823D1F090912E
:1041C000120160911301891728F085E0689FB00102
:1041D0001124DACF869FB001112485E0869F9001DB
:1041E000879F300D1124692F70E0C9010E94022AB7
:1041F000CBCF65E070E0CECF8FE7089581E00895E2
:104200008091D60180FF0CC06091110170E075951E
:104210006795759567956115710549F1862F089524
:1042200081FF06C06091110170E075956795F3CF2D
:104230006091110182FD0BC09091D5019923A1F0ED
:104240006091100180911101961738F0682F70E08D
:104250006038710500F38FE70895899FC00111242C
:1042600070E00E94022AF4CF61E070E0D7CF81E0D5
:104270000895803F31F40E94B62081958093DA0141
:104280000895813F19F40E94B620F8CF823F31F49F
:104290000E94B62081958093D9010895833F19F437
:1042A0000E94B620F8CF893F29F40E940021809314
:1042B000DB0108958A3F21F40E9400218195F7CF08
:1042C0008B3F31F40E94002181958093DC01089599
:1042D0008C3F19F40E940021F8CF843F31F4809183
:1042E000D80181608093D8010895853F21F48091A1
:1042F000D8018260F7CF863F21F48091D801846095
:10430000F1CF873F21F48091D8018860EBCF883FBF
:1043100021F48091D8018061E5CF8D3F31F4809107
:10432000D60181608093D60108958E3F21F480915B
:10433000D6018260F7CF8F3FB9F78091D6018460B4
:10434000F1CF9091D901803F41F48091DA0187FD4E
:104350001092DA01992371F00895813F29F4809138
:10436000DA011816ACF3F6CF823F81F497FFF2CF53
:104370001092D9018091DA019091DB01892B909103
:10438000DC01892B49F71092D5010895833F19F478
:10439000191674F3DFCF893F39F48091DB011816C9
:1043A000CCF61092DB01D6CF8A3F29F48091DB0155
:1043B00087FFD0CFF6CF8B3F39F48091DC0187FFA8
:1043C000C9CF1092DC01C6CF8C3F29F48091DC016B
:1043D0001816BCF3BFCF843F31F48091D8018E7F93
:1043E0008093D801B7CF853F21F48091D8018D7F8C
:1043F000F7CF863F21F48091D8018B7FF1CF873FA3
:1044000021F48091D801877FEBCF883F21F4809100
:10441000D8018F7EE5CF8D3F31F48091D6018E7F1C
:104420008093D60197CF8E3F21F48091D6018D7F66
:10443000F7CF8F3F09F08ECF8091D6018B7FF0CFE1
:1044400087ED91E00E9469120E9420209093D40190
:104450008093D30108951F93CF93DF938091D3016D
:104460009091D4010E942C20AC019091D501209113
:10447000140130E0911106C0209115018AE0289FB7
:10448000900111244217530778F02091D901C0916F
:10449000DA01D091DB011091DC01211109C08C2FD0
:1044A0008D2B812B09F06AC0DF91CF911F91089568
:1044B0009F3F19F09F5F9093D501121624F40E943C
:1044C000B6208093D9018091D90187FF05C00E9451
:1044D000B62081958093D9011C1624F40E94B62041
:1044E0008093DA018091DA0187FF05C00E94B6202F
:1044F00081958093DA013091D9013323A1F0209185
:10450000DA01222381F045EB3403C0011124992301
:1045100069F19093D90145EB2403900111243323D1
:1045200049F13093DA011D1624F40E940021809392
:10453000DB018091DB0187FF05C00E94002181958E
:104540008093DB01111624F40E9400218093DC018A
:104550008091DC0187FF05C00E9400218195809336
:10456000DC01DF91CF911F910C94202281E0809398
:10457000D901D1CF81E08093DA01D5CF9F3F09F0F7
:1045800099CFAACF86E0E7EDF1E0DF011D928A9591
:10459000E9F71092D5011092D60108958091FD019E
:1045A00008950F931F93CF93DF9300D00F92CDB751
:1045B000DEB78C010E943025823011F0843021F565
:1045C00084E089831B830A8382E08093E9008FEF74
:1045D0009091E800815095FD06C095ED9A95F1F710
:1045E00000008111F5CF8091E80085FF0DC050E0FB
:1045F00040E063E070E0CE0101960E944D2580917D
:10460000E8008E778093E8000F900F900F90DF9175
:10461000CF911F910F910895CF93DF9300D00F9208
:10462000CDB7DEB720914A02243031F523E029834B
:10463000805891099B838A8382E08093E9008FEF01
:104640009091E800815095FD06C095ED9A95F1F79F
:1046500000008111F5CF8091E80085FF0DC050E08A
:1046600040E063E070E0CE0101960E944D2580910C
:10467000E8008E778093E8000F900F900F90DF9105
:10468000CF910895CF93DF93EC010E9430258230C3
:1046900011F08430F9F482E08093E9008FEF90917B
:1046A000E800815095FD06C095ED9A95F1F7000060
:1046B0008111F5CF8091E80085FF0CC050E040E00B
:1046C00066E070E0CE010E944D258091E8008E7773
:1046D0008093E800DF91CF910895CF93DF93EC01B1
:1046E0000E943025823011F08430B9F5809120018C
:1046F0008823B1F18091440287FF32C060E282E0FA
:104700008093E9008FEF9091E800815095FD06C0FD
:1047100095ED9A95F1F700008111F5CF8091E800B1
:1047200085FF1BC08091200170E050E040E08111C6
:1047300004C050E040E068E070E0CE010E944D25EA
:104740008091E8008E778093E80080E2FE01ADED75
:10475000B1E001900D928A95E1F7DF91CF91089534
:1047600068E081E0CDCF80914902811109C00E94AB
:10477000DD260E943A278091E20084608093E20067
:104780000895109249020895089508950C94E61F23
:1047900042E061EC81E00E94592642E261EC82E055
:1047A0000C94592680914C02833009F45FC030F498
:1047B0008130C1F1823009F49BC008958A3009F438
:1047C00087C08B3009F46DC0893009F04EC08091EC
:1047D0004B02813209F049C080914F029091500202
:1047E000029708F042C08091E800877F8093E8003C
:1047F0008091E80082FF35C09091F3008091F20033
:10480000029729F48091F1008B7F813021F480910F
:10481000F1008093FD018091E8008B778093E800A0
:104820000C948D2680914B02813AF9F48091E80036
:10483000877F8093E80080914F0290915002892BEE
:1048400061F460E28DED91E070E00E949C25809122
:10485000E8008B778093E800089560E090E080E0C6
:10486000F3CF80914A028111C3CF089580914B020A
:10487000813AD9F780914F0290915002892BA9F784
:104880008091E800877F8093E8008091E80080FFB6
:10489000FCCF809120018093F1008091E8008E7719
:1048A000BDCF80914B02813201F780914F029091F0
:1048B0005002892BD1F68091E800877F8093E80031
:1048C0000E948D2680914D02809320010C94C11787
:1048D00080914B02813249F68091E800877F809376
:1048E000E8000E948D2680914E028093FE0108957B
:1048F00080914B02813A09F0B8CF8091E800877F20
:104900008093E8008091E80080FFFCCF8091FE0159
:10491000C2CF84B7877F84BF0FB6F894A8958091E3
:104920006000886180936000109260000FBE80E894
:1049300090E00FB6F89480936100909361000FBEF1
:104940000E94B1120E94DD260E943A278091E20067
:1049500084608093E20078940E94C3290E94B91277
:1049600086E191E00E943E1280914A02853019F062
:104970000E94C512F9CF0E949B1F80914802882394
:1049800099F30E94CF1F882379F30E943725ECCF3B
:104990000C94CA24292F33272330310519F168F4E8
:1049A0002130310509F44AC02230310509F44BC0E9
:1049B00090E080E030E020E028C02132310579F13C
:1049C00022323105A9F780E490E024E037E0611558
:1049D0007105D9F080EC90E024E436E06130710597
:1049E000A1F0E6CF99278130910599F0009741F029
:1049F0008230910589F00397D9F6E7ECF5E002C023
:104A0000E3EFF5E0849190E09F01FA013183208388
:104A10000895EBEDF5E0F6CFEDECF5E0F3CF89E0AE
:104A200090E029E036E06115710579F389E090E0C6
:104A300022E236E06130710541F3BACF82E190E0C5
:104A400022E336E0E2CF8BE390E027EF35E0DDCFE5
:104A500080914A02843011F482E0089581E0089543
:104A60008091FF01811102C00C942825089580E1F6
:104A700089BD82E189BD09B400FEFDCF8091D800D7
:104A80008F7D8093D8008091E00082608093E00069
:104A90008091E00081FDFCCF0895AF92BF92CF924C
:104AA000DF92FF920F931F93CF93DF936C01EB0183
:104AB0008A010E94AC26F82E811123C00115110530
:104AC00039F0F80180819181C81BD90BC80ED91E1D
:104AD000B12CA12C2097A9F08091E80085FD22C07F
:104AE0008091E8008E778093E80001151105A1F010
:104AF000F80180819181A80EB91EB182A08285E063
:104B0000F82E8F2DDF91CF911F910F91FF90DF90A5
:104B1000CF90BF90AF9008950E94AC268823D1F229
:104B2000F82EEFCFF60181916F018093F10021976C
:104B3000FFEFAF1ABF0ACECFFC01809151029091D6
:104B4000520286179707A0F06115710529F490911C
:104B5000E8009E779093E80090E06115710551F4AC
:104B6000911108C08091E80082FF34C080E0089570
:104B7000BC01F2CF80914A028823C1F18530C1F196
:104B80008091E80083FD30C08091E80082FDEACF8B
:104B90008091E80080FFE1CF8091F3002091F20046
:104BA000382F6115710519F02830310558F091E062
:104BB0002830310509F090E02091E8002E7720930D
:104BC000E800CBCF81918093F100615071092F5F94
:104BD0003F4FE7CF80914A02882341F0853041F072
:104BE0008091E80083FFBECF81E0089582E00895C0
:104BF00083E00895FC018091510290915202861742
:104C00009707A0F06115710529F48091E8008E776F
:104C10008093E80090E06115710551F4911108C08E
:104C20008091E80082FF35C080E00895BC01F2CF9A
:104C300080914A028823C9F18530C9F18091E8004A
:104C400083FD31C08091E80082FDEACF8091E800C9
:104C500080FFE1CF8091F3002091F200382F6115A1
:104C6000710519F02830310558F091E028303105F0
:104C700009F090E08091E8008E778093E800CBCF38
:104C800084918093F1003196615071092F5F3F4FFD
:104C9000E6CF80914A02882341F0853041F080912F
:104CA000E80083FFBDCF81E0089582E0089583E0AE
:104CB0000895982F973028F08F708093E90081E055
:104CC00008959093E900242F762F50E0981731F043
:104CD0007091EC002091ED005091F00021FD02C098
:104CE0009F5FE8CF3091EB003E7F3093EB00309137
:104CF000ED003D7F3093ED003091EB00316030935B
:104D0000EB007093EC002093ED005093F0002091A5
:104D1000EE0027FDE5CF80E0089580914B0287FFEC
:104D200013C08091E80082FF06C08091E8008B7775
:104D30008093E80004C080914A028111F2CF089567
:104D400080914A028823D9F38091E80080FFF8CF50
:104D50008091E8008E77ECCF2091E4003091E5005F
:104D600095E6A9012091EC00822F817020FF06C0FA
:104D70008091E80080FF06C080E008952091E8005F
:104D800022FD1AC080914A02882389F0853089F07B
:104D90008091EB0085FD0FC02091E4003091E5008B
:104DA00042175307F9F29150E1F684E0089582E04A
:104DB000089583E0089581E008950E944B270E94A2
:104DC0005327E0EEF0E0808181608083E8EDF0E041
:104DD00080818F77808319BCA7EDB0E08C918E7FA6
:104DE0008C9380818F7E80831092490208950F9367
:104DF0001F93CF93DF930E944B270E945327C8ED48
:104E0000D0E088818F7788838881806888838881D3
:104E10008F7D888319BC10924A021092460210922C
:104E200048021092470200EE10E0F80180818B7F6B
:104E3000808388818160888342E060E080E00E9416
:104E40005926E1EEF0E080818E7F8083E2EEF0E093
:104E5000808181608083808188608083F801808187
:104E60008E7F8083888180618883DF91CF911F91BD
:104E70000F910895E8EDF0E080818F7E8083E7ED6B
:104E8000F0E080818160808384E082BF81E0809354
:104E900049020C94F726E8EDF0E080818E7F808354
:104EA0001092E20008951092DA001092E100089545
:104EB0001F920F920FB60F9211242F933F934F938F
:104EC0005F936F937F938F939F93AF93BF93EF9372
:104ED000FF938091E10082FF0BC08091E20082FF8E
:104EE00007C08091E1008B7F8093E1000E94C2297E
:104EF0008091DA0080FF19C08091D80080FF15C032
:104F00008091DA008E7F8093DA008091D90080FF53
:104F100096C080E189BD82E189BD09B400FEFDCF64
:104F200081E080934A020E94B3238091E10080FFD8
:104F300019C08091E20080FF15C08091E2008E7F51
:104F40008093E2008091E20080618093E200809192
:104F5000D80080628093D80019BC85E080934A0213
:104F60000E94C5238091E10084FF2BC08091E20064
:104F700084FF27C080E189BD82E189BD89B5982F72
:104F8000917080FFFBCF8091D8008F7D8093D800F7
:104F90008091E1008F7E8093E1008091E2008F7E1E
:104FA0008093E2008091E20081608093E200809132
:104FB0004602882309F449C084E080934A020E9493
:104FC000C6238091E10083FF29C08091E20083FF26
:104FD00025C08091E100877F8093E10082E080938B
:104FE0004A02109246028091E1008E7F8093E10098
:104FF0008091E2008E7F8093E2008091E2008061E8
:105000008093E20042E060E080E00E9459268091B7
:10501000F00088608093F0000E94C423FF91EF911C
:10502000BF91AF919F918F917F916F915F914F91C0
:105030003F912F910F900FBE0F901F90189519BCA4
:1050400010924A020E94C12370CF8091E30087FD35
:1050500093E090934A02B3CF1F920F920FB60F9234
:1050600011242F933F934F935F936F937F938F936D
:105070009F93AF93BF93CF93DF93EF93FF93D09121
:10508000E900DF708091EC00C82FC17080FDC0E89E
:105090001092E9008091F000877F8093F00078946F
:1050A0000E9470281092E9008091F000886080933F
:1050B000F000CD2BCF70C093E900FF91EF91DF910D
:1050C000CF91BF91AF919F918F917F916F915F91A0
:1050D0004F913F912F910F900FBE0F901F901895F9
:1050E0001F93CF93DF93CDB7DEB7AA970FB6F8948F
:1050F000DEBF0FBECDBF8BE492E02091F100FC013A
:105100002193CF01F2E083359F07B9F70E94D223A4
:105110008091E80083FF1EC180914B0290914C0268
:105120009A3008F017C1E92FF0E0E750F54D0C94E4
:10513000382A803899F0823809F00CC180914F02EA
:105140008F70873008F006C18093E9008091EB00F2
:1051500085FB882780F91092E90006C080914702FC
:1051600090914802911182609091E800977F90930E
:10517000E8008093F1001092F1008091E8008E77B2
:10518000E5C0882309F4D3C0823009F0E3C08091E0
:105190004D028111D6C080914F028F702FEF280FE2
:1051A000263008F0D7C08093E9002091EB0020FF63
:1051B000C8C0933031F48091EB0080628093EB00A3
:1051C000C0C09091EB0090619093EB0021E030E043
:1051D00001C0220F8A95EAF72093EA001092EA00B4
:1051E0008091EB008860EACF8111B4C010914D022C
:1051F0001F778091E3008078812B8093E30080917A
:10520000E800877F8093E8000E948D268091E80067
:1052100080FFFCCF8091E30080688093E30082E010
:10522000111183E080934A0295C08058823008F0C3
:1052300091C080914D0290914E028C3D23E09207E7
:10524000A1F583E08A838AE289834FB7F894DE016F
:10525000139620E03EE051E2E32FF0E05093570038
:10526000E49120FF03C0E295EF703F5FEF708E2F57
:1052700090E0EA30C0F0C7968D939D932F5F243164
:1052800059F74FBF8091E800877F8093E8006AE27A
:1052900070E0CE0101960E949C258091E8008B77FA
:1052A0008093E80057C0C096E7CF60914F0270919D
:1052B0005002AE014F5F5F4F0E94C824BC01892B92
:1052C00009F448C09091E800977F9093E8008981A5
:1052D0009A810E94FA25E1CF8038E1F58091E800BB
:1052E000877F8093E800809146028093F10045CF4C
:1052F000811130C090914D02923060F58091E800AC
:10530000877F8093E800909346020E948D268091CB
:105310004602882311F084E005C08091E30087FDF8
:10532000FACF81E080934A020E94C82313C0809183
:105330004D02813079F481E0933009F080E0809370
:1053400048021092E9008091E800877F8093E8008E
:105350000E948D268091E80083FF0AC08091E800BA
:10536000877F8093E8008091EB0080628093EB0060
:10537000AA960FB6F894DEBF0FBECDBFDF91CF91D6
:105380001F9108950895CF9380914A028823A1F038
:10539000C091E900CF709091EC00892F817090FD51
:1053A00080E8C82B1092E9008091E80083FD0E94FC
:1053B0007028CF70C093E900CF910895DB018F93DF
:1053C0009F930E944D2ABF91AF91A29F800D911D86
:1053D000A39F900DB29F900D11240895AA1BBB1B93
:1053E00051E107C0AA1FBB1FA617B70710F0A61BE5
:1053F000B70B881F991F5A95A9F780959095BC0106
:10540000CD01089597FB072E16F4009407D077FD81
:1054100009D00E94EE2907FC05D03EF490958195B5
:105420009F4F0895709561957F4F0895A1E21A2EC0
:10543000AA1BBB1BFD010DC0AA1FBB1FEE1FFF1F38
:10544000A217B307E407F50720F0A21BB30BE40B88
:10545000F50B661F771F881F991F1A9469F76095CF
:105460007095809590959B01AC01BD01CF01089589
:10547000EE0FFF1F0590F491E02D0994A29FB0015B
:10548000B39FC001A39F700D811D1124911DB29F78
:10549000700D811D1124911D08950E943E2AA59F23
:1054A000900DB49F900DA49F800D911D112408951F
:1054B000FC014150504030F001900616D1F7319771
:1054C000CF010895882799270895F999FECF92BDB5
:1054D00081BDF89A992780B50895A6E1B0E044E02F
:1054E00050E00C949F2AA8E1B0E042E050E00C9418
:1054F0009F2A262FF999FECF92BD81BDF89A019778
:1055000000B4021639F01FBA20BD0FB6F894FA9A0B
:10551000F99A0FBE08950396272F0E947A2A0E94B7
:10552000792A252F0E947A2A242F0C947A2A019610
:10553000272F0E947A2A0C94792ADC01CB01FC01E6
:10554000F999FECF06C0F2BDE1BDF89A319600B4DC
:105550000D9241505040B8F70895F894FFCF0004E1
:105560000B0413041B0423042B0433043B044304E3
:105570004B0453045B0463046B0473047B048304D3
:105580008B0493049B04A304AB04B304BB04A10EDB
:10559000A90EB00EB50EBA0EBF0EC40EC90ECE0EB9
:1055A000D30ED80EDD0EE10EE60EE90EA30EA30E0D
:1055B000EC0EEE0EA30E451545159D159D15EF1528
:1055C0000B16721572154D16D916E816E816441703
:1055D0004D1772157017D017D017D917D917DB17B9
:1055E000D917D917D917D017D017E017D917D91746
:1055F000E0179928C128AA29C128AA29F428152921
:06560000AA296C2978299B
:105606001010100110111213141516171819AE01E7
:105616002808140A321ECE226D2342230C23D122DF
:1056260001F7F69496919093920001020202020607
:1056360006060909090909090F10101010101010A3
:045646001010100030
:00000001FF
